:020000040800F2
:100000008017002005010008E11F00088D1F00086F
:10001000DD1F0008B115000871370008000000005E
:100020000000000000000000000000006325000840
:10003000611700080000000009240008C52B000813
:100040001F0100081F0100081F0100081F01000810
:100050001F0100081F0100081F0100081F01000800
:100060001F0100081F0100081F0100081F010008F0
:100070001F0100081F0100081F0100081F010008E0
:100080001F0100081F0100081F0100081F010008D0
:100090001F0100081F0100081F0100084519000882
:1000A0001F0100081F0100081F0100081F010008B0
:1000B0001F010008C92C0008000000001F010008F3
:1000C0001F01000800000000000000001F010008E0
:1000D00000000000093200081F01000800000000B5
:1000E000C11800081F0100081F010008DFF810D028
:1000F00001F044F800480047314D0008AFF300809C
:10010000801700200648804706480047FEE7FEE7C4
:10011000FEE7FEE7FEE7FEE7FEE7FEE7FEE7FEE7B7
:10012000C92B0008ED0000082DE9F04F4FF0000C3E
:100130004FF0000301EB1C6EBEF90250BEF9004007
:100140000EF5807EBEF90290BEF900800EF5807E2D
:10015000BEF90270BEF900600EF5807EBEF902B0F5
:10016000BEF900A00EF5807ED044D944A8EB4A0A1F
:10017000A9EB4B0B4FEAA4044FEAA50504EBA60438
:1001800005EBA705A4EB6606A5EB670704EBA8043F
:1001900005EBA905A4EB6808A5EB690906EBAB061E
:1001A000A7EBAA07A6EB6B0B07EB6A0A458020F8C2
:1001B000044B478020F8046BA0F8029020F8048BD1
:1001C000A0F802A020F804BB03F1010393FAA3FCFA
:1001D000402BAFD1A0EB82014FF0100312090FF2B8
:1001E000361000F1000006B403EB430C6144A2F5A5
:1001F000803202EB8332B1F90250B1F90040A1EB39
:100200000301B0F902B0B0F900A000F10400A5EBC1
:10021000040E0EFB0BFC0AEB4B0E05FB0ACB04FB9A
:100220000ECAB1F90250B1F90040A1EB0301B0F9D7
:100230000290B0F9008000F10400A5EB040E0EFB63
:1002400009FC08EB490E05FB08C904FB0EC8B1F90F
:100250000250B1F90040A1EB0301B0F90270B0F90E
:10026000006000F10400A5EB040E0EFB07FC06EB9A
:10027000470E05FB06C704FB0EC6B1F90250B1F9E3
:10028000004001F10001D044D944A8EB4A0AA9EB8F
:100290004B0B4FEAA4044FEAA50504EB264405EBFB
:1002A0002745A4EBE636A5EBE73704EB284405EB3E
:1002B0002945A4EBE838A5EBE93906EB2B46A7EB7B
:1002C0002A47A6EBEB3B07EBEA3A4D800C8019443A
:1002D0004F800E801944A1F80290A1F800801944C3
:1002E000A1F802A021F804BBB2F5803283DA03EB57
:1002F000430C6144A2F101025FEA024E18BFA0EB79
:100300000C007FF476AF06BC4FEA830392087FF4BB
:100310006AAFBDE8F08F00400000004000000040E0
:1003200000005DDD213BA3227E180000412D7EA54B
:10033000412D0000412D00C000405DDD82E75DDD04
:10034000213B7EA5412D0040000000400000004000
:100350000000AA2A94126B39460649327C0CA81177
:100360008E2349327C0CA3227E1821F77931AA2AE8
:100370009412A8118E235DDD213BA3227E1800007C
:10038000412D95C6B13F461A2B1E58EE3735BEB4E7
:10039000C53EA8118E235DDD213B63A97138DF08BE
:1003A0009A28B7CDC53E7EA5412D0000412D00C045
:1003B000004063A92B1E21F77931BEB4C53EBEB4FF
:1003C0007C0C58EE373561AC213B95C6BAF9BAE5DD
:1003D00071383BA737355DDD82E75DDD213B7EA5CA
:1003E000412D21F766D756D53F3D3BA78E23A81157
:1003F000C9CAB7CDC53E61AC7E18AA2AC1C295C68E
:10040000B13FBEB47C0C0040000000400000004042
:1004100000001E3BB504693E9201C83C2403EB3545
:100420006409C83C24036B3946066C30060E1E3B3B
:10043000B504EB356409AA2A94126B394606493291
:100440007C0CAE240917AF37D607882E8D0F7E1E81
:100450005D1BEB356409AA2A941224188C1F1E34E4
:10046000F10AB3269015A8118E2349327C0CA322E1
:100470007E18140B60276C30060E7E1E5D1B710407
:10048000FB2A882E8D0F461A2B1EC7FD5A2E9D2C37
:100490001211FE15E72021F77931AA2A9412A8112A
:1004A0008E2387F05334B2281314480D202602EA15
:1004B000E536B3269015DF089A289CE32B39AE2445
:1004C00009177104FB2A5DDD213BA3227E18000081
:1004D000412D4ED7C53C9320EF198FFB6C2F78D15F
:1004E000153E7E1E5D1B21F77931E2CB0F3F641C68
:1004F000C61CB8F2683395C6B13F461A2B1E58EE9B
:10050000373597C1FB3F24188C1F02EAE536F0BC53
:10051000EC3FFE15E720BAE57138A6B8853FD51344
:100520003D2282E1DB39BEB4C53EA8118E235DDDDC
:10053000213B40B1AF3D790FDA244DD9423C2EAE7C
:10054000423C480D202656D53F3D8EAB823A140BD7
:10055000602778D1153E63A97138DF089A28B7CD96
:10056000C53EB1A71236A906CE2915CA4F3F78A6B7
:1005700068337104FB2A95C6B13FBCA576303902B9
:10058000212C38C3EC3F7EA5412D0000412D00C039
:100590000040BCA5CE29C7FD5A2EF0BCEC3F78A682
:1005A00020268FFB6C2F09BAB13FB1A73D2257F926
:1005B00076304DB74F3F63A92B1E21F77931BEB47A
:1005C000C53E8EABEF19ECF474325EB2153E2EAE22
:1005D0009015B8F268332DB03F3D40B1121187F04D
:1005E00053342EAE423CBEB47C0C58EE373561AC71
:1005F000213BA6B8D6072BEC1236C8AADB39F0BCD3
:10060000240302EAE53663A9713897C16EFEDCE780
:10061000B03734A8E53695C6BAF9BAE571383BA7C4
:100620003735E2CB0FF59CE32B3978A6683378D1C8
:1006300073F082E1DB39EDA579314ED7EDEB6DDF5B
:10064000823A99A56C2F5DDD82E75DDD213B7EA5B9
:10065000412D9CE33AE352DBB63B99A5FB2A02EA23
:1006600019DF4DD9423CEDA59A2887F026DB4ED7FD
:10067000C53C78A6202621F766D756D53F3D3BA737
:100680008E23C7FDDFD363D3AF3D34A8E7207104C9
:1006900094D078D1153E63A92B1E140B8CCD94CF2A
:1006A000723EC8AA5D1BA811C9CAB7CDC53E61ACD0
:1006B0007E18241850C8E2CB0F3F2EAE90157E1E38
:1006C00025C615CA4F3F2DB09412AE244AC451C856
:1006D000853F5EB28D0FAA2AC1C295C6B13FBEB496
:1006E0007C0C6C308EC1E2C4D43F4DB76409EB354D
:1006F000B1C038C3EC3F09BA46061E3B2CC097C1B7
:10070000FB3FF0BC240340EA01039B0703D009E050
:1007100008C9121F08C0042AFAD203E011F8013BED
:1007200000F8013B521EF9D27047D2B201E000F846
:10073000012B491EFBD270470022F6E710B5134685
:100740000A4604461946FFF7F0FF204610BD421E38
:1007500012F8013F002BFBD111F8013B02F8013BDD
:10076000002BF9D1704730B505462A460B4612F8E2
:10077000010B13F8014B08B1A042F8D01CB10028BE
:1007800002D06D1CF1E7284630BD10B5044604E0E8
:100790000B7800F8013B03B1491C521EF8D22046E9
:1007A00010BDCAB2401E10F8011F8A4202D00029B3
:1007B000F9D100207047421C10F8011B0029FBD121
:1007C000801A7047034611F8012B00F8012B002A0C
:1007D000F9D11846704770B5064603F04BF9046826
:1007E00005460A220021304600F092FB2C6070BDC5
:1007F000F0B480EA0102D40F4200B2EB410F02D202
:100800000246084611464A0042D0C30DDDB2C1F38C
:10081000C752AD1A202D35DAC1F3160141F400029A
:1008200004B15242C5F1200602FA06F12A411044F1
:10083000B3EBD05F23D0C4B1012DA0EBC35009DCD2
:10084000F0BC4FF0004202EAC352DBB200F50000F8
:1008500000F09FBB400000F1807000EBC350A0F19E
:10086000807040EAD170490009E0490841EAC0714E
:10087000A0EBC35000F50000400800EBC350F0BCF3
:1008800000F07EBB6142012202EB4101001BF6E752
:10089000F0BC704781F00041AAE780F00040A7E774
:1008A00080EA010210B502F00043400022D04A0065
:1008B0001FD0010E01EB1261C0F35600C2F35602C5
:1008C00040F4000042F40002A0FB022000047F3943
:1008D000140400D0401C50EA124001D44000491ECC
:1008E000C2B20C0604EBD010401C4008802A02D093
:1008F00003E0002010BD20F00100002900DA0020F4
:10090000184310BD30B480EA010202F0004530F017
:10091000004221F0004013D090B1C30DD40DC2F3BA
:100920001601C0F31600E41A41F4000140F400027D
:100930007D34914201D3641C00E04900002C02DAAE
:1009400030BC002070474FF400000023914201D3D7
:10095000891A034340084FEA4101F7D151B191424E
:1009600002D14FF0004105E002D24FF0010101E059
:100970006FF0010103EBC450284430BC00F000BB11
:100980002DE9FE4F804681EA0300C00F0C4600901F
:1009900021F0004123F00045B8EB0200A94105D247
:1009A0004046214690461C460B46024623F0004036
:1009B000104347D0270DC7F30A00C3F30A51029032
:1009C000401A019040286BDAC3F3130040F4801BF7
:1009D0000098924620B10023D2EB030A63EB0B0B85
:1009E00001985946C0F14002504600F060FA0646B0
:1009F0000D4650465946019A00F078FA10EB08006F
:100A00006141002487EA115284EAE7731A4340D017
:100A1000009A62B3019A012A4FEA075215DC001BC3
:100A200061EB02014FF0004202EA0752CDE90042B9
:100A3000001C41F5801132462B4600F0E7FA03B066
:100A4000BDE8F08F40462146F9E7001B61EB02014B
:100A5000001C41F5801300185B412018A2F5001717
:100A600047EB030140EAD570B6196D4111E06D08FE
:100A70004FEA360645EAC0754FEA0752001B61EBA4
:100A80000201001C41F5801149084FEA30000019AD
:100A9000514132462B4603B0BDE8F04F00F0A7BAF3
:100AA0000098012240000023D0EB020263EBE073C8
:100AB000009821464FEAE074B8EB000061EB0401B6
:100AC000E9E783F000435BE781F0004158E72DE957
:100AD000FE4F81EA030404F0004421F00041009439
:100AE0004FF0000B23F0004350EA01045ED052EABD
:100AF00003045BD0C3F30A54C1F30A552C44A4F297
:100B0000F3340194A0FB0254C1F3130141F48011AA
:100B1000C3F3130343F4801301FB024400FB034EB1
:100B2000840A970A44EA815447EA8357A4FB07687A
:100B300002958D0A05FB07854FEA932C04FB0C54A4
:100B40002705029D4FEA065847EA1637B5EB080518
:100B50006EEB070C870E920E47EA811742EA83126A
:100B6000A7FB0201B6EB0B0164EB00042B0D43EA7B
:100B70000C335E1844EB1C50DA465146E7FB020189
:100B8000C5F313044FEA0B3343EA14534FEA04321C
:100B9000019C43EA0603A4F10C040294009CCDE9F5
:100BA00000B400F033FA03B0BDE8F08F0020014636
:100BB000F9E72DE9F04D81EA030404F0004B21F040
:100BC000004514464FF0000A23F0004150EA0502A8
:100BD00020D054EA01021DD0C5F30A570246C5F3DE
:100BE0001303C1F31300C1F30A5640F4801543F414
:100BF0008013A7EB0608101BD64608F2FD3873EBEE
:100C0000050002D308F1010801E092185B41B8F138
:100C1000000F03DA00200146BDE8F08D00204FF4FC
:100C20008011064684460EE0171B73EB050705D3BB
:100C3000121B63EB050306434CEA010C49084FEA1B
:100C4000300092185B4150EA0107EDD152EA0300EF
:100C500012D082EA040083EA0501084305D0101B84
:100C6000AB4106D20122002306E000224FF00043F0
:100C700002E06FF0010253101AEB06004CEB085132
:100C800010EB0A0041EB0B01BDE8F04D00F0AFB9ED
:100C9000C10F80EAE0700844CA079623002100F0E3
:100CA00078B90EB5C10F80EAE0700844CA07002188
:100CB00040F233438DE80E000A460B4600F0A6F9D9
:100CC00003B000BD0EB540F2334102910021CDE9E1
:100CD00000110A460B4600F099F903B000BD20F060
:100CE0000040C10DC0F3160040F400007F2901DA76
:100CF00000207047962903DCC1F19601C840704777
:100D0000963988407047C1F30A5210B5C1F31301F8
:100D100040F2FF3341F480119A4201DA002010BD05
:100D200040F233439A42A2F2334203DC524200F0D3
:100D3000CDF810BD904010BD00F0004230F00040F2
:100D40000AD0C10D01F56071C0F3160042EA0151ED
:100D5000C208400711437047002001467047000059
:100D600030B5041E71F1000404DB4FF00044404232
:100D700064EB0101141E73F1000405DB1C464FF007
:100D80000043524263EB04038B4208BF824230BDF2
:100D900030B5041E71F1000404DB4FF00044404202
:100DA00064EB0101141E73F1000405DB1C464FF0D7
:100DB0000043524263EB0403994208BF904230BDA6
:100DC00001F0004330B421F0004150EA010206D0A6
:100DD0000A0DA2F56072C1F31301002A02DC30BCD7
:100DE00000207047440F44EAC104C100E01830BC41
:100DF00000EBC25000F0C4B8002801DBC0F1004095
:100E0000002901DBC1F1004181427047002801DB6C
:100E1000C0F10040002901DBC1F100418842704768
:100E200030B50B46014600202022012409E021FABA
:100E300002F59D4205D303FA02F5491B04FA02F5B7
:100E40002844151EA2F10102F1DC30BD2DE9F05F4E
:100E50000546002092469B46884606468146402429
:100E60001BE0284641464746224600F02FF85346ED
:100E70005A46C01A914110D311461846224600F036
:100E800016F82D1A67EB01084F4622460120002173
:100E900000F00DF817EB00094E41201EA4F10104EB
:100EA000DFDC484631462A464346BDE8F09F202A0B
:100EB00004DB203A00FA02F1002070479140C2F1B1
:100EC000200320FA03F3194390407047202A04DBE3
:100ED000203A21FA02F00021704721FA02F3D040B3
:100EE000C2F120029140084319467047202A06DBD0
:100EF000CB17203A41FA02F043EAE07306E041FAE8
:100F000002F3D040C2F120029140084319467047D5
:100F10002DE9F04791460F4680460446002614F816
:100F2000015B2DB100F03CF90068405DC007F6D1CF
:100F30002B2D02D02D2D18D0641E4A46394620464E
:100F400000F032F927B13968A14201D1C7F8008019
:100F500071054FF002040BD54042002803DD02F07A
:100F600089FD0460A007BDE8F08746F48066E4E7E9
:100F70000028F8DA02F07EFD04606FF00040F2E72E
:100F80000029A8BF7047401C490008BF20F001009D
:100F9000704710B4B0FA80FC00FA0CF050EA01047B
:100FA00004BF10BC704749B1CCF1200421FA04F40D
:100FB00011FA0CF118BF012121430843A3EB0C01E6
:100FC000CB1D4FEA00614FEA102042BF002010BC49
:100FD000704700EBC35010440029A4BF10BC7047F9
:100FE000401C490008BF20F0010010BC704710B53C
:100FF000141E73F1000408DA401C41F1000192183C
:101000005B411A4301D120F0010010BD2DE9F04DE4
:1010100092469B4611B1B1FA81F202E0B0FA80F239
:1010200020329046FFF743FF04460F4640EA0A008D
:1010300041EA0B0153465A46084313D0114653EA7E
:10104000010019D0C8F140025046FFF73FFF0546A6
:101050000E46504659464246FFF729FF084305D041
:10106000012004E020463946BDE8F08D002005430C
:1010700046EAE0762C4337430A986305E40AA0EB7E
:1010800008000022FD0A44EA47540A3002D5002035
:101090000146E9E7010510196941DDE90845001934
:1010A0006941BDE8F04DA2E72DE9F04D00231A4655
:1010B0001B1A8A4103DB00200146BDE8F08DC1F315
:1010C0000A52C1F3130141F480154FF0000BD10710
:1010D00002D100186D41521E0027044640F2FF1154
:1010E000384601EB620A3E468046024600204FF435
:1010F0008011FFF7EBFEC2197141BB1846EB0100EE
:10110000B4EB030C75EB000C04D3E41A65EB00059B
:1011100017460E46241908F101006D418046342817
:10112000E3DDF91946EB0600091BA84103D24FF095
:10113000FF32134601E0002213461BEB070046EB8B
:101140000A51BDE8F04DFFF752BFC1F30A52C1F397
:10115000130140F2FF3341F480119A4202DA002079
:101160000146704740F233439A42A2F2334202DC16
:101170005242FFF7ABBEFFF79ABE0000064C074D88
:1011800006E0E06840F0010394E807009847103457
:10119000AC42F6D3FEF7AEFF8C5F0008AC5F0008F0
:1011A000004870473C5F00082DE9F05F82460078F8
:1011B000002715468B460AF10104B946302801D0B4
:1011C0009DB113E014F8010B0127782803D05828AB
:1011D00001D045B10AE00DB1102D07D1002710252F
:1011E00014F8010B02E0082500E00A250026B046AD
:1011F0000EE005FB080005FB06F1012701EB104698
:101200001FFA80F8B6F5803F00D3B94614F8010BF9
:10121000294600F018F80028EBDABBF1000F05D0E2
:101220000FB1641E00E05446CBF80040B9F1000F46
:1012300006D002F01FFC02210160C81EBDE8F09F2D
:1012400048EA0640FAE73A2800D2303820F0200277
:10125000412A01D3A2F13700884201D34FF0FF3079
:10126000704770B58C1810F8015B15F0070301D1B9
:1012700010F8013B2A1106D110F8012B03E010F8F9
:10128000016B01F8016B5B1EF9D12B0705D400231C
:10129000521E0DD401F8013BFAE710F8013BCB1ABE
:1012A000921C03E013F8015B01F8015B521EF9D5B3
:1012B000A142D8D3002070BD21B1826842F0010262
:1012C000826003E0826822F001028260704721B1EF
:1012D000826842F48072826003E0826822F4807245
:1012E00082607047014600208A6802F004020AB159
:1012F000012000E00020704730B5024600200023A6
:1013000050680F4C20400D790C6844EA05242043B6
:10131000506090680B4C2040D1E902542C434D7929
:1013200044EA450420439060D06A20F470000C7CAD
:10133000641EE4B2234340EA0350D06230BD000093
:10134000FFFEF0FFFDF7F1FFF0B504460D4600206B
:101350000021092D11DDE068A5F10A0606EB46071C
:10136000072606FA07F18843A5F10A0606EB4606AA
:1013700003FA06F10843E0600CE0206905EB45073D
:10138000072606FA07F1884305EB450603FA06F13E
:1013900008432061072A0FDA606B561E06EB8607AA
:1013A0001F2606FA07F18843561E06EB860605FA45
:1013B00006F10843606322E00D2A0FDA206BD61F86
:1013C00006EB86071F2606FA07F18843D61F06EBB1
:1013D000860605FA06F10843206310E0E06AA2F1F0
:1013E0000D0606EB86071F2606FA07F18843A2F1D1
:1013F0000D0606EB860605FA06F10843E062F0BD2D
:1014000021B1826842F4A002826003E0826822F483
:10141000A00282607047816841F0040181607047DA
:1014200000B585B00121480201F01CF800200090B1
:1014300001208DF80500002003904FF460200290F9
:1014400000208DF810002B48007818B101208DF88D
:10145000040002E000208DF8040069462648FFF7EA
:101460004BFF24480078012803D1002000F0CEFF74
:101470000CE020480078032804D14FF4804000F0AD
:10148000C5FF03E04FF4004000F0C0FF19480078AA
:10149000012800D100E0002016490978032901D174
:1014A000012100E00021084330B100230122194648
:1014B0001148FFF749FF05E001231A4600210E48B5
:1014C000FFF742FF01210C48FFF7F6FE0A48FFF73D
:1014D000A2FF00BF0848FFF705FF0028FAD001214E
:1014E0000548FFF7F4FE01210348FFF789FF05B027
:1014F00000BD0000440000200024014000B58BB076
:101500000121084600F08EFF174800F05FF81748E9
:1015100000901748007810B11648019001E0164875
:101520000190002002901248007818B14FF48070AA
:10153000039001E00120039000200490802005909A
:10154000400006908000079020200890000209903B
:1015500000200A906946044800F0DEF801210248A4
:1015600000F028F80BB000BD080002404C240140F8
:1015700044000020681100204600002008B5012129
:10158000042000F06FFF0120ADF8000000208DF86E
:1015900003006946014800F0CDFA08BD000801408B
:1015A00010B5FFF7EBFFFFF7A9FFFFF739FF10BDFD
:1015B00000BFFEE721B1026842F00102026004E0D0
:1015C00002684FF6FE731A400260704701684FF6DA
:1015D000FE72114001600021016041608160C160C4
:1015E0004B49884208D14A490839496841F00F01FE
:1015F000474A083A51608AE045491431884208D187
:1016000043490839496841F0F001414A083A5160BC
:101610007DE03F492831884208D13D490839496871
:1016200041F470613A4A083A516070E038493C31FF
:10163000884208D136490839496841F47041344A32
:10164000083A516063E032495031884208D130494C
:101650000839496841F470212D4A083A516056E032
:101660002B496431884208D129490839496841F435
:101670007001274A083A516049E02549783188428B
:1016800008D123490839496841F07061204A083A75
:1016900051603CE01F49884206D1011F096841F0B2
:1016A0000F01021F116032E01A491431884208D13B
:1016B0001849091F096841F0F001164A121F11600C
:1016C00025E014492831884208D11249091F0968C8
:1016D00041F470610F4A121F116018E00D493C314E
:1016E000884208D10B49091F096841F47041094A31
:1016F000121F11600BE007495031884207D105499C
:10170000091F096841F47021024A121F11607047D5
:10171000080002400804024010B50022026847F6A3
:10172000F0739A430C6A8B6823430C6923434C691A
:1017300023438C692343CC6923434C6A23438C6A3B
:1017400023431A430260CB6843600B6883604B6895
:10175000C36010BD002001490870704708000020D8
:10176000704700002DE9F8478046894617464FF03C
:10177000000A00262CE0002426E0002520E0B85DC9
:10178000203816490978401A00EB4000144901EB53
:10179000400208232146284600F0F6FA8246BAF1B4
:1017A000010F0BD106EB460109EB410108B22346BC
:1017B0002A464146CDF800A001F0C8F8681CC5B221
:1017C000062DDCDB601CC4B2082CD6DB701CC6B254
:1017D000B85D0028CFD1BDE8F88700000F000020D9
:1017E000DA55000801460020704700002DE9F8474F
:1017F0008046894617464FF0000A002428E000255D
:1018000022E000261CE0385D203814490978401A8F
:10181000134901EB001208232946304600F0B4FAC0
:101820008246BAF1010F09D109EBC40108B22B4677
:1018300032464146CDF800A001F088F8701CC6B2CF
:10184000082EE0DB681CC5B2102DDADB601CC4B2C8
:10185000385D0028D3D1BDE8F88700000F000020D4
:1018600002580008002000BF18E00F494978814263
:1018700012D10D49C91C095C09B9014600E0FF21DC
:10188000094A9170D11C095C09B9012200E00022CB
:101890000549C91C0A5405E0411CC8B2024909782F
:1018A0008142E2DC00BF7047A800002010B504466A
:1018B000A04710BD10B503F01FFA00F07BF810BD73
:1018C00010B54FF4804000F0B7F860B10A2002F084
:1018D0006DFD1848006810B91748FFF7E7FF4FF48F
:1018E000804000F0A3F84FF4005000F0A5F800B3DA
:1018F0000A2002F081FD0F48001F0068012808D16E
:101900000C48001D0068012803D10C48FFF7CEFFEA
:101910000BE00848001F0068012806D10548001D9B
:10192000006810B90648FFF7C1FF4FF4005000F0FF
:101930007DF810BD3881214265180008D31F0008CA
:101940005925000810B5202000F076F850B10A2083
:1019500002F02CFD1648006808B900F0FDFD2020BB
:1019600000F064F84FF4807000F066F860B10A206F
:1019700002F01CFD0E480C30006808B900F029FB8D
:101980004FF4807000F052F84FF4007000F054F8FB
:1019900060B10A2002F00AFD05481030006808B95D
:1019A000FFF760FF4FF4007000F040F810BD00003A
:1019B000148121420EB50121084600F053FD03F0C9
:1019C0009BF90D21012000F095F84FF40050019093
:1019D00000208DF8080008208DF8090001208DF8FE
:1019E0000A0001A800F03CF80E21012000F082F866
:1019F0004FF48040019000208DF808000C208DF8F5
:101A0000090001208DF80A0001A800F029F828201B
:101A10008DF8000001208DF801008DF802008DF88E
:101A20000300684600F0DEFA0EBD000001490860C0
:101A30007047000014040140014600200022074BBB
:101A40001B6803EA0102054B14331B680B4013B1FA
:101A50000AB1012000E000207047000000040140AE
:101A6000002123498279002A3AD00A461268036885
:101A70009A430B461A600A1D126803689A430B1DAD
:101A80001A60027911440A6803681A430A60184A06
:101A90000832126803689A43154B08331A601A1DFE
:101AA000126803689A43124B0C331A604279102A69
:101AB0000ED11A1F126803681A430D4B08331A60BF
:101AC0001A1D126803681A43094B0C331A600DE0A3
:101AD0000749427911440A6803681A430A6005E01D
:101AE000027911440A6803689A430A60704700004B
:101AF0000004014030B500228B071C0F0F2303FAAE
:101B000004F20B4B8C1053F824309343084C8D1087
:101B100044F8253023468C1053F824308C07240FCA
:101B200000FA04F42343024C8D1044F8253030BDF4
:101B3000080001402DE9F041024600250026002062
:101B400000230024002791F803C00CF00F0591F842
:101B500003C00CF0100CBCF1000F03D091F802C0D0
:101B60004CEA050591F800C0BCF1000F31D01468B3
:101B700000202BE04FF0010C0CFA00F3B1F800C08C
:101B80000CEA03069E4220D183004FF00F0C0CFAA2
:101B900003F7BC4305FA03FC4CEA040491F803C0C4
:101BA000BCF1280F06D14FF0010C0CFA00FCC2F872
:101BB00014C00AE091F803C0BCF1480F05D14FF002
:101BC000010C0CFA00FCC2F810C0401C0828D1D34C
:101BD0001460B1F800C0BCF1FF0F34DD5468002080
:101BE0002EE000F1080C4FF0010808FA0CF3B1F8F0
:101BF00000C00CEA03069E4221D183004FF00F0C77
:101C00000CFA03F7BC4305FA03FC4CEA040491F810
:101C100003C0BCF1280F05D100F1080C08FA0CF83C
:101C2000C2F8148091F803C0BCF1480F07D100F14D
:101C3000080C4FF0010808FA0CF8C2F81080401C9C
:101C40000828CED35460BDE8F0810000F0B50A4604
:101C5000002300240021002500F00046B6F1004FCB
:101C600002D11D4EF16901E01B4E7168C0F30345BE
:101C700083B200F44016B6F5401F08D121F0706120
:101C8000154E766826F07066134F7E6012E000F401
:101C90008016B6F5801F06D1032606FA05F4A14387
:101CA00041F0706106E0460D360103FA06F6B143D5
:101CB00041F0706122B1460D360103FA06F6314358
:101CC00000F00046B6F1004F02D1034EF16101E091
:101CD000014E7160F0BD00000000014001617047DD
:101CE0002DE9FF4F85B081468A4600200390834648
:101CF0000798A0EB09050898A0EB0A06CDF8089014
:101D0000CDF804A0002D01DD012705E00DB9002765
:101D100002E04FF0FF376D42002E02DD4FF0010868
:101D200006E016B94FF0000802E04FF0FF387642A7
:101D3000B54201DD2C4600E03446002004901CE052
:101D4000129ADDE9011000F089FA03982844039003
:101D5000B3440398A04205DD0398001B039002984A
:101D600038440290A34504DDABEB040B01984044DA
:101D700001900498401C80B20490611C0498884231
:101D8000DEDD09B0BDE8F08FF0B504461546084623
:101D9000CE1701EB5676F61006FB03463544CE17F8
:101DA00001EB5676F610A1EBC6072E783E4106F001
:101DB00001060EB10120F0BD0020FCE72DE9F04F37
:101DC00085B00020029082464FF4807259495A48EB
:101DD000FEF7AAF901243BE0574931F8241008B274
:101DE000FEF756FF0490544951F824100814FEF7EA
:101DF0004FFF039003990846FEF752FD01900499A6
:101E00000846FEF74DFD00900199FEF7F1FC834670
:101E1000FEF792FF074603F063F80546FEF7D0FF92
:101E200081460021601E454A22F810104846FEF700
:101E300056FF81B2601E414A22F8101048460299AE
:101E4000FEF7E4FF02D2CDF80890A246601C84B2EF
:101E5000802CC1DB3A48807BA0B95046FEF732FFA8
:101E600005464FF00042374BFEF731FE0022364B5D
:101E7000CDE90001FEF79DFE0746FEF744FF33491A
:101E8000086053E02E48807B012814D15046FEF7AD
:101E900019FF07464FF000422D4BFEF718FE05468E
:101EA0000022294BFEF785FECDE90001FEF72BFF4E
:101EB000264908603AE02248807B022813D1504628
:101EC000FEF700FF0022234BCDE90001FEF7FFFDE6
:101ED000054600221C4BFEF76CFE0746FEF713FF7B
:101EE0001A49086022E01C480AFB00FB4FEAEB702D
:101EF0000BEB10600012C0EB0010C1001748008807
:101F0000401C91FBF0F11548001D0088401C91FB1E
:101F1000F0F00190FEF7C5FE05460022104BFEF7DB
:101F20002FFD0746FEF7EFFE0849086005B0BDE843
:101F3000F08F00006801002068050020680B002079
:101F4000A8000020445950410000704004000020C7
:101F50004459404180842E4140420F0028040040F3
:101F60000000E03F10B500200549088040F6FF70F2
:101F70000449088001221146034800F074FF10BD97
:101F80004A0000204C0000200004004000BFFEE793
:101F900070B505460C4602F0F1FD782002F0C4FD54
:101FA00002F014FE00B110E0284602F0BDFD02F080
:101FB0000DFE00B109E0204602F0B6FD02F006FE7B
:101FC00000B102E002F0F2FD70BD02F0EFFD00BFD3
:101FD000FAE710B5002001F0B3FA10BD00BFFEE72C
:101FE0007047000070B5002100230F22C47804B3AD
:101FF000154C246804F4E064C4F5E064210AC1F1DE
:102000000403CA40447804FA03F18478144021435D
:1020100009010E4C0678A155047804F01F0501242F
:10202000AC4005786D11AD0005F1E025C5F8004123
:1020300009E0047804F01F050124AC40044D067843
:10204000761145F8264070BD0CED00E000E400E09C
:1020500080E100E002490143024A1160704700003C
:102060000000FA050CED00E010B502F03DFD4FF464
:10207000967002F09BF9AE2001F0D0FC202001F018
:10208000CDFC102001F0CAFCB02001F0C7FCC82034
:1020900001F0C4FC002001F0C1FC102001F0BEFCE6
:1020A000402001F0BBFC812001F0B8FCFF2001F0D2
:1020B000B5FCA12001F0B2FCA62001F0AFFCA820E5
:1020C00001F0ACFC3F2001F0A9FCA42001F0A6FC2B
:1020D000D32001F0A3FC002001F0A0FCD52001F0EA
:1020E0009DFCF02001F09AFCD92001F097FC222001
:1020F00001F094FCDA2001F091FC122001F08EFC3A
:10210000DB2001F08BFC202001F088FC8D2001F009
:1021100085FC142001F082FCAF2001F07FFC10BD93
:102120002DE9F041064602F029FD782002F0FCFC82
:1021300002F04CFD002002F0F7FC02F047FD2020E9
:1021400002F0F2FC02F042FD002002F0EDFC02F091
:102150003DFD212002F0E8FC02F038FD002002F0F5
:10216000E3FC02F033FD7F2002F0DEFC02F02EFDE6
:10217000222002F0D9FC02F029FD002002F0D4FC5C
:1021800002F024FD072002F0CFFC02F01FFD02F058
:10219000F5FC782002F0C8FC02F018FD402002F0A7
:1021A000C3FC02F013FD00240EE0002508E006EB5E
:1021B000C411485D02F0B8FC02F008FD681CC5B20D
:1021C000802DF4DB601CC4B2082CEEDB02F0EEFCC8
:1021D00016480078002827D0A527394614A001F01A
:1021E00025FC394612A001F021FC12A001F01EFCD2
:1021F00000240DE0002507E006EBC410415D0CA0B3
:1022000001F014FC681CC5B2802DF5DB601CC4B263
:10221000082CEFDB5A27394605A001F007FC3946A8
:1022200003A001F003FC00BFBDE8F08142000020E4
:10223000256300000000000070B505460C4605F15E
:10224000B001C8B201F0EAFB04F00F0001F0E6FBB8
:10225000102141EA141001F0E1FB70BD2DE9F041BD
:1022600003461446002500263CB3CF1701EB5777F1
:10227000FF10DFF894C00CEBC717FF5C0A464FEA6B
:10228000E17C01EB5C7C4FEAEC0CA1EBCC084FF05D
:10229000010C0CFA08FC0CF0FF0C47EA0C0708468E
:1022A0004FEAE17C01EB5C7C4FEAEC0CDFF85880F4
:1022B00008EBCC1C0CF8037024E0CF1701EB577728
:1022C000FF10DFF844C00CEBC717FF5C0A464FEA6B
:1022D000E17C01EB5C7C4FEAEC0CA1EBCC084FF00D
:1022E000010C0CFA08FC27EA0C0708464FEAE17CCF
:1022F00001EB5C7C4FEAEC0CDFF80C8008EBCC1CAB
:102300000CF80370BDE8F081680D00202DE9F05F46
:1023100005460E4690469946DDF828B04FF0000A73
:1023200000240027B9F1010F03D0B9F1020F63D1E6
:1023300038E032E018F80700203800F0FF0A7E2D60
:1023400002DD0025701CC6B229463046FFF774FF37
:1023500000241CE0BBF1000F0CD10AEB4A00284915
:1023600001EB4000005DC043264901EBC6112A196C
:1023700088540AE00AEB4A00214901EB4000005D65
:10238000204901EBC6112A198854601CC4B2062CDE
:10239000E0DBA81DC5B2781CC7B218F807000028FA
:1023A000C8D129E023E018F80700203800F0FF0A20
:1023B000782D02DD0025701CC6B229463046FFF795
:1023C0003BFF002401E0601CC4B2082CFBDB711C45
:1023D000C8B22946FFF730FF002401E0601CC4B2F8
:1023E000082CFBDB05F10800C5B2781CC7B218F851
:1023F00007000028D7D100BF00BFBDE8F09F000054
:102400009C530008680D0020704700000146002022
:10241000034A506820F44040084350607047000071
:102420000010024029B1064A52690243044B5A6126
:1024300004E0034A52698243014B5A61704700002D
:102440000010024029B1064AD2690243044BDA6106
:1024500004E0034AD2698243014BDA61704700000D
:102460000010024029B1064A92690243044B9A6166
:1024700004E0034A92698243014B9A61704700006D
:102480000010024030B500210022002400232D4D11
:102490006D6805F00C0121B1042905D0082923D16C
:1024A00005E0294D056022E0274D05601FE0254D20
:1024B0006D6805F47012234D6D6805F480340225B3
:1024C00005EB92421CB9214D554305600BE01D4DB3
:1024D0006D6805F400351DB11C4D5543056002E0E3
:1024E000194D5543056002E0174D056000BF00BF60
:1024F000144D6D6805F0F0010909154D6B5C056818
:10250000DD4045600F4D6D6805F4E061090A104D2E
:102510006B5C4568DD4085600A4D6D6805F460516F
:10252000C90A0B4D6B5C4568DD40C560054D6D68A3
:1025300005F44041890B074D6B5CC568B5FBF3F5AD
:10254000056130BD0010024000127A0000093D0014
:10255000280000203800002010B5012000F0F0FF16
:1025600010BD70472DE9FF4F83B081468A469346E0
:102570004FF000080020029001900026002763E041
:102580000D2F1FD007DC6FB1012F0FD0022F11D0FC
:10259000032F27D112E00E2F18D00F2F1AD0102F93
:1025A00020D11BE00420804602901FE003208046DB
:1025B00002901BE002208046029017E00120804636
:1025C000029013E00120804602900FE00220804636
:1025D00002900BE003208046029007E00420804632
:1025E000029003E000208046029000BF00BF002060
:1025F0008046029000BF1FE0514A12884A443A4484
:1026000011B20AEB080210B280234E4AFFF7BCFB5E
:10261000019001210198814301910198009048485F
:102620000088484401B23B464246504600F08EF9CD
:1026300008F1010000F0FF08434801680298081AF9
:102640004045D9DC781CC7B20698874298DB5C46C7
:102650001098C5003D480068844216DD3B4800687C
:10266000201A032190FBF1F0401CC6B2102E00DDB1
:10267000102636480068304434490860084600682F
:1026800084421CDC0846046019E03048006884423B
:1026900015DA2E480068001B032190FBF1F0401C66
:1026A000C6B2102E00DD102628480068801B27497E
:1026B000086008460068A04201DC0846046024481F
:1026C0000068854216DD22480068281A032190FB25
:1026D000F1F0401CC6B2082E00DD08261C48006838
:1026E00030441B4908600846006885421CDC0846E7
:1026F000056019E016480068854215DA144800683C
:10270000401B032190FBF1F0401CC6B2082E00DDF7
:1027100008260F480068801B0D49086008460068BD
:10272000A84201DC084605600848006806490860C0
:10273000074800680249086007B0BDE8F08F000054
:1027400084000020680D0020800000207800002018
:102750007C0000202DE9FF4F83B081468A469346D6
:102760004FF000080020029001900026002762E050
:102770000D2F1FD007DC6FB1012F0FD0022F11D00A
:10278000032F27D112E00E2F18D00F2F1AD0102FA1
:1027900020D11BE00420804602901FE003208046E9
:1027A00002901BE002208046029017E00120804644
:1027B000029013E00120804602900FE00220804644
:1027C00002900BE003208046029007E00420804640
:1027D000029003E000208046029000BF00BF00BFCF
:1027E00021E0012F1BDD514A12884A443A4411B2BC
:1027F0000AEB080210B280234D4AFFF7C5FA019098
:102800000121019881430191019800904748008877
:10281000484401B23B464246504600F097F808F162
:10282000010000F0FF08434801680298081A40457B
:10283000D7DC781CC7B20698874299DB5C461098B3
:1028400005013D480068844216DD3B480068201AB7
:10285000032190FBF1F0401CC6B2102E00DD1026C3
:1028600035480068304434490860084600688442AE
:102870001CDC0846046019E02F480068844215DA21
:102880002D480068001B032190FBF1F0401CC6B2EC
:10289000102E00DD102628480068801B264908609D
:1028A00008460068A04201DC08460460234800682E
:1028B000854216DD21480068281A032190FBF1F0BB
:1028C000401CC6B2082E00DD08261C4800683044B3
:1028D0001A4908600846006885421CDC0846056005
:1028E00019E016480068854215DA14480068401B54
:1028F000032190FBF1F0401CC6B2082E00DD082633
:102900000E480068801B0D49086008460068A84210
:1029100001DC084605600848006806490860074869
:1029200000680249086007B0BDE8F08F740000201D
:10293000680D002070000020680000206C0000205E
:102940000149086070470000500000202DE9F04167
:10295000069EBEB38418802C6CDACC18402C69DA41
:102960008418002C66DDCC18002C63DDCC18E7172A
:1029700004EB5777FF10DFF8C0C00CEBC71700EB74
:10298000020C17F80C70CD184FEAE57C05EB5C7C67
:102990004FEAEC0CA5EBCC084FF0010C0CFA08FC4C
:1029A00047EA0C07CC184FEAE47C04EB5C7C4FEA66
:1029B000EC0CDFF8848008EBCC1C00EB02080CF870
:1029C000087037E0FFE78418802C33DACC18402CED
:1029D00030DA8418002C2DDDCC18002C2ADDCC1820
:1029E000E71704EB5777FF10DFF84CC00CEBC71765
:1029F00000EB020C17F80C70CD184FEAE57C05EBE4
:102A00005C7C4FEAEC0CA5EBCC084FF0010C0CFA07
:102A100008FC27EA0C07CC184FEAE47C04EB5C7C4A
:102A20004FEAEC0CDFF8108008EBCC1C00EB02083E
:102A30000CF80870BDE8F081680D002010B500F0BA
:102A400001F810BD0CB500200190009033480068DB
:102A500040F480303149086000BF3048006800F41D
:102A6000003000900198401C0190009818B901981E
:102A7000B0F5A06FF1D12948006800F4003010B122
:102A80000120009001E0002000900098012843D12F
:102A90002348006840F0100021490860084600689B
:102AA00020F0030008600846006840F0020008605B
:102AB0001A48406819494860084640684860084616
:102AC000406840F4806048600846406820F47C100C
:102AD00048600846406840F4541048600846006862
:102AE00040F08070086000BF0C48006800F0007083
:102AF0000028F9D00948406820F0030007494860E1
:102B00000846406840F00200486000BF0348406843
:102B100000F00C000828F9D10CBD000000100240A4
:102B20000020024070B50646F01E0B282FD2DFE8C9
:102B300000F02B2825221F1C1814100B060040F251
:102B4000E73440F2AF4523E040F2E73440F2572546
:102B50001EE040F2E734EF251AE040F2E734772533
:102B600016E040F2F314772512E0632477250FE096
:102B7000312477250CE01324772509E009247725F3
:102B800006E031240B2503E013240B2500E000BFF1
:102B900000BF2946204600F001F970BD042808D185
:102BA0004FF0E021096941F004014FF0E02211618A
:102BB00007E04FF0E021096921F004014FF0E02225
:102BC000116170477047000010B51348006840F06D
:102BD00001001149086008464068104908400E4944
:102BE0004860084600680E4908400B4908600846DE
:102BF000006820F4802008600846406820F4FE0049
:102C000048604FF41F008860FFF718FF4FF0006026
:102C10000449086010BD0000001002400000FFF8E9
:102C2000FFFFF6FE08ED00E030B589B005460C4622
:102C300001210846FFF706FC01210420FFF712FCE2
:102C40000820ADF8200018208DF8230003208DF80F
:102C5000220008A91B48FEF76DFFADF81850ADF82B
:102C600014400020ADF81A00ADF8160005A94FF089
:102C7000804000F04FF96020ADF804000120ADF86D
:102C800006000020ADF80A00ADF80C0001A94FF0D5
:102C9000804000F0F1F80121880700F0C4F8082115
:102CA000C80600F027F90121880700F0A1F80121EA
:102CB000880700F0ACF80121880700F0A8F809B0F7
:102CC00030BD00000008014010B501212A4800F085
:102CD000B9F800284BD0294800882949294A128888
:102CE00021F8120008462749098830F811002649C2
:102CF0000988884206DD22482249098830F81100F7
:102D0000214908801E481F49098830F811001F49D1
:102D10000988884206DA1A481A49098830F81100E9
:102D20001A49088016481749098830F8110000042C
:102D30001749144A128841F8220012480088401CA2
:102D40001049088008460088B0F5807F0FD1002028
:102D5000088001200F4908700F48006810B10E4824
:102D60000068804700220121034800F07CF801211F
:102D7000014800F049F810BD000400404600002062
:102D800068090020480000204A0000204C00002074
:102D90006801002008000020500000207FB5054693
:102DA0000C4601210220FFF74DFBADF80850ADF8AD
:102DB00004400020ADF80A00ADF8060001A90B4858
:102DC00000F0A8F81D208DF8000002208DF8010009
:102DD00003208DF8020001208DF803006846FFF7FC
:102DE00001F90121014800F012F87FBD0004004004
:102DF00021B1028842F08002028004E002884FF68E
:102E00007F731A4002807047CA430282704721B123
:102E1000028842F00102028004E002884FF6FE734D
:102E20001A400280704731B1B0F8442042F40042A9
:102E3000A0F8442005E0B0F84420C2F30E02A0F848
:102E40004420704730B50246002000230024158A34
:102E500005EA0103958905EA010413B10CB10120CB
:102E600000E0002030BD1AB183890B43838102E06A
:102E700083898B438381704770B50022002300242F
:102E8000058C4EF6FF7635400584038C8488828B52
:102E900048F6FF752A404FF6FF452A400D884FF649
:102EA000FF7606EA05252A434DF6FF752B400D896E
:102EB00006EA05352B434D8806EA05352B430B4DB5
:102EC000A84202D00A4DA84208D14BF6FF752C400B
:102ED0008D894FF6FF7606EA85152C438480828320
:102EE000CD88A0F84050038470BD0000002C014044
:102EF000003401400A460021818B4FF2FF731940D4
:102F00004FF6FF7303EA0223194381837047A0F849
:102F100040107047002202881D4B98420ED01D4B76
:102F200098420BD0B0F1804F08D01B4B984205D08F
:102F30001A4B984202D01A4B984204D14FF68F7325
:102F40001A404B881A43174B984207D0164B9842A9
:102F500004D04FF6FF431A40CB881A4302808B8877
:102F600083850B8803850A4B98420BD0094B984206
:102F700008D00E4B984205D00D4B984202D00D4B15
:102F8000984201D10B7A03860123838270470000A7
:102F9000002C0140003401400004004000080040C3
:102FA000000C0040001000400014004000400140B0
:102FB00000440140004801402DE9FE4F754800786B
:102FC0003238029074480078323801907348007E9D
:102FD000C0F13F00C1B20022652001F0AFF96F4897
:102FE000807E38B164236E480078DDE9012101F06C
:102FF0000DFC06E064236A480078DDE9012102F057
:1030000095F864480078142190FBF1F201FB120658
:1030100033460A460021084601F090FB61480068EB
:10302000FDF750FE8246604A604BFDF750FD0646B4
:103030000F465F480068FDF745FE804632463B4636
:10304000FDF7A6FE14D357480068FDF73BFE064681
:10305000584A594BFDF73BFD804689465448006865
:10306000FDF730FE824642464B46FDF779FE10D210
:1030700052A15448FDF7A6FB4D4800684949086035
:10308000012003464F4A002100901520FFF73EF92A
:103090002CE0474800684349086045480068B0F59F
:1030A0007A7F11D34248006800F5FA704FF47A71C4
:1030B000B0FBF1F6324644A1424800F0C7FC43A100
:1030C0004048FDF744FB09E0394841A102683D480A
:1030D00000F0BCFC3FA13B48FDF739FB0120034653
:1030E000384A002100901520FFF710F93A4800886F
:1030F000FDF7E8FD80460022384BFDF75AFD0646F5
:103100004FF06632364BFDF7E2FC04460D46354A79
:10311000354B20462946FDF723FE01D8314C324D70
:1031200022462B4631A1334800F090FC32480088FB
:10313000FDF7C8FD06460022284BFDF73AFD804604
:103140004FF06632264BFDF7C2FC04460D46254A79
:10315000254B20462946FDF703FE01D8214C224D80
:1031600022462B4621A1254800F070FC24A12148CD
:10317000FDF7EDFA23A12148FDF7E9FA1D491F48A3
:10318000FDF7E5FA1D4A00210A20FEF7EBFABDE83B
:10319000FE8F00000C0000200D000020A800002081
:1031A0005B000020000000209A9999999999F13FBD
:1031B00004000020CDCCCCCCCCCCEC3F2A2A2A4831
:1031C0007A0000008E000020256400004B487A0041
:1031D00025336400487A00004A00002000FEAF401A
:1031E00066660A407B14AE47E17A843F252E316C37
:1031F00066000000940000204C0000209A0000208F
:1032000056000000202D200070B540F22551564890
:1032100000F0D4F8002814D0534800F08BF9C4B261
:103220005248008800F4004000280AD14F48008826
:1032300000F4804000287CD00A2C03D000204B49A9
:10324000088090E04948008840F4004047490880E1
:10325000474801684748FDF786FA10B1FEF7B9FE06
:103260005EE0454801684348FDF77DFA10B1FFF77D
:1032700073F955E0414801683E48FDF774FA10B112
:10328000FEF7F0FA4CE03EA13A48FDF76CFA18B1AF
:1032900001203C49087043E03BA13648FDF763FA42
:1032A00018B10020374908703AE0384801683148C1
:1032B000FDF759FA80B12F4801F086FA34490870B9
:1032C000084600780A2190FBF1F085B229464FF0BC
:1032D0008040FFF71CFE23E02E4801682548FDF7DB
:1032E00042FA28B1234801F06FFA2B49087017E021
:1032F000204800782949087008460078732802D1D0
:10330000FEF7B0FA0CE025480078612802D1FEF7FC
:1033100060FE05E021480078642801D1FFF71CF920
:1033200014491FA000F082FB0020104908801AE019
:10333000FFE70D2C06D10D48008840F480400B4972
:10334000088010E009480088C0F30D0009490C54BA
:1033500006480088401C0549088008460088132854
:1033600001DD0020088070BD0038014048010020C8
:103370004C0100206813002050010020540100205F
:1033800079657300420000206E6F00005801002034
:103390000C0000205C0100200D00002060010020D6
:1033A0002573000021B1828942F40052828104E039
:1033B00082894DF6FF731A408281704770B50246CC
:1033C000002400230025002040F66A16B14200D1F7
:1033D00000BFC1F3421501F01F03012606FA03F3F3
:1033E000012D02D19689334006E0022D02D1168AC2
:1033F000334001E0968A33400C12012606FA04F4A9
:103400001688344013B10CB1012000E0002070BDDB
:10341000F0B50346002400260025002040F66A1778
:10342000B94200D100BF1846C1F3421401F01F0693
:10343000012707FA06F5012C01D10C3004E0022C1B
:1034400001D1103000E014301AB107682F43076033
:1034500002E00768AF430760F0BD00002DE9F047C8
:1034600086B005460E460024A24600BFA1460027AE
:10347000B08900B100BF2F462C8A4CF6FF70044083
:10348000F08804432C82AC894EF6F3100440B088D7
:1034900031890843718908430443AC81AC8A4FF6F3
:1034A000FF400440B0890443AC8201A8FEF7EAFF64
:1034B0001F48874202D1DDF810A001E0DDF80CA022
:1034C000A88900F4004040B10AEBCA0000EB0A10E2
:1034D00031684900B0FBF1F807E00AEBCA0000EBE5
:1034E0000A1031688900B0FBF1F86420B8FBF0F0F5
:1034F00004012009642101FB1089A88900F400401F
:1035000040B1322000EBC900B0FBF1F000F0070041
:10351000044308E0322000EB09106421B0FBF1F015
:1035200000F00F0004432C8106B0BDE8F0870000D6
:103530000038014001468888C0F308007047000049
:103540002DE9F047044686488078FF2876D08448E5
:1035500080780A2873D2DFE800F00524345D738791
:10356000A4BBCADB7E48807B14B94FF0FF3100E07A
:10357000012108440F300F2190FBF1F201FB1200F2
:10358000774988730846807E032802D10120887617
:1035900006E07348807E022802D1002070498876B8
:1035A000D3E06F49C97B14B94FF0FF3200E001222C
:1035B000881800EBD0714910A0EB4101684AD17323
:1035C000C3E0002C0EDD66490869FDF7B5FB074630
:1035D0000022644BFDF7D4F90546FDF7F1FB604985
:1035E000086116E0ACB95E490869FDF7A5FB054620
:1035F00000225C4BFDF765FA0746FDF7E1FB5849F1
:10360000086108690021FDF7F7FB02D80020544942
:1036100008619AE05248B0F9140014B94FF0FF3134
:1036200000E00121084400B24D4988820846B0F903
:103630001400632801DD6320888286E086E083E051
:103640004748B0F9160014B94FF0FF3100E00121EE
:10365000084400B24249C8820846B0F916006328FF
:1036600001DD6320C88270E03D48007E14B94FF050
:10367000FF3100E001210844394908760846007E00
:103680002C2806DB0846007EFA2802DA2C20087671
:1036900006E03348007EFA2802DD00203049087633
:1036A00053E02F49497E14B94FF0FF3200E0012268
:1036B0001144081DC11700EB91718910A0EB810125
:1036C000274A51760120284908701146C8733CE00A
:1036D0002349897E0CB9012200E00122881800EB01
:1036E000D0714910A0EB41011D4A91762DE01C4894
:1036F000C07EC01C14B94FF0FF3100E00121084426
:10370000032190FBF1F201FB12001549C8761CE081
:103710004FF00B091248007F0CB9012101E04FF076
:10372000FF310844484490FBF9F109FB11000C49B2
:1037300008770846007F0B2190FBF1F201FB120590
:10374000284601F0B7FB00BF00BF06E0002C01DDFA
:10375000012000E0022005490870BDE8F087000064
:10376000A80000200000D03F090000203801002000
:1037700000BFFEE72DE9F84F8146002564243F276E
:103780001326012033460522314600900020FEF723
:10379000A7FA01200090601F334622463146FEF70B
:1037A0009FFA01203B460522394600900020FEF793
:1037B00097FA01200090601F3B4622463946FEF7EB
:1037C0008FFA01203B460022314600901046FEF75A
:1037D00087FA01203B462246314600902046FEF7FC
:1037E0007FFA01203B462246314600902046FEF7F4
:1037F00077FA0120A04604EBD87149108A1CA24632
:1038000004EBDA7149100090881E33463146FEF70A
:1038100067FA012004EBD87149108A1C04EBDA71B5
:1038200049100090881E3B463946FEF759FA0120A0
:10383000E11704EB917189108A1CE11704EB917177
:1038400089100090881E33463146FEF749FA012060
:10385000E11704EB917189108A1CE11704EB917157
:1038600089100090881E3B463946FEF739FA012040
:10387000E11704EB9171891001EB41018A1CE117FA
:1038800004EB9171891001EB41010090881E3346D1
:103890003146FEF725FA0120E11704EB91718910FA
:1038A00001EB41018A1CE11704EB9171891001EBD6
:1038B00041010090881E3B463946FEF711FAB9F1E6
:1038C000000F7CD000BF3BE0284605EBD0714910CB
:1038D000A5EB410199BB07EB060A07EB060801209F
:1038E00008EBD87C4FEA6C0305F1010C0CEB8C0C57
:1038F0000CF101020AEBDA7C4FEA6C0105EB850C56
:1039000000900CF10400FEF7EBF90120DFF808C18C
:1039100000909CF818C0CCF13F0305F1010C0CEBB2
:103920008C0C0CF10102DFF8F0C09CF818C0CCF14F
:103930003F0105EB850C0CF10400FEF7D1F96D1C7D
:10394000052094FBF0F0A842BEDC00255AE0284692
:1039500005EBD0714910A5EB410189BBA046A246F9
:10396000012005F1010C06EB8C0CACF1010304EB1A
:10397000DA7C4FEA6C0206EB850C0CF1010104EBDA
:10398000D87C00904FEA6C00FEF7AAF9012005F1FF
:10399000010C06EB8C0CACF101034FEAE47C04EB68
:1039A0009C7C4FEAAC0206EB850C0CF101014FEA5E
:1039B000E47C04EB9C7C00904FEAAC0001E028E042
:1039C0001FE0FEF78DF901204FEAE47C04EB9C7CBC
:1039D0004FEAAC0C0CEB4C024FEAE47C04EB9C7C11
:1039E0004FEAAC0C00900CEB4C0005F1010C06EB1F
:1039F0008C0CACF1010306EB850C0CF10101FEF718
:103A00006FF96D1CF91707EB91718910891EA94296
:103A10009DDCBDE8F88F0000A800002010B504462A
:103A200021460020FEF7B4FA10BD00000FB4054B8C
:103A300010B503A9044A029800F0F8F810BC5DF82C
:103A400014FB000029490008440100200FB4084B72
:103A500010B504A902AA039800F0E8F8044602A9E8
:103A6000002000F066FC204610BC5DF814FB00004E
:103A700033430008004870476401002002E008C892
:103A8000121F08C1002AFAD170477047002001E0D8
:103A900001C1121F002AFBD17047000001490860D4
:103AA00070470000640100202DE9FF5F82B0002113
:103AB000DDE90430020DDDF840B0034318D044F6D0
:103AC0001050A2F2FF3242431514119801281FD062
:103AD000A5EB0B00401C5FEA000A4FF000064E4FBA
:103AE000DFF83891B046504615D5CAF1000413E00E
:103AF000119801244AA3012801D16FEA0B01029811
:103B0000119AC0E90031C0E9024206B0BDE8F09F59
:103B1000CBF10000DFE704460021404A491842EBA0
:103B20000450CDE9001012E0E00707D032463B46D2
:103B300040464946FCF7CBFF8046894632463B4625
:103B400010461946FCF7C3FF06460F466410002CCA
:103B5000EAD1DDE90401DDE90023BAF1000F06DA5C
:103B6000FCF7B5FF42464B46FCF7B1FF05E0FDF719
:103B700020F842464B46FDF71CF804460E4600224C
:103B8000284BFDF705F903D84FF0FF30014607E059
:103B90000022254B20463146FCF7F2FEFDF7D5FA10
:103BA000102409E0002C0ADB0A220023FDF74EF95D
:103BB000039B30321A55641E50EA0102F2D1641C94
:103BC000039AC4F111031444119A012A03D001226B
:103BD00008430DD10AE0084304D000204FF0110B38
:103BE000119072E7A3EB0B056D1E0DE05B4504DD44
:103BF0004FF0000205F1010504E003DA4FF0000286
:103C0000A5F10105002AECD002981199C0E9023112
:103C1000C0E9004579E70000000014400000F03FD3
:103C2000300000000000F0430000E03F2DE9FF4FAE
:103C300095B09A46884606460025EEE1252877D1BC
:103C400000242746F94A0121039400E0044316F8B2
:103C5000013F203B01FA03F01042F7D130782A28C7
:103C600011D06FF02F033078A0F13002092A16D856
:103C7000039A44F0020402EB820203EB4202104476
:103C8000761C0390EFE758F8042B0392002A03DA1E
:103C9000504244F40054039044F00204761C3078FF
:103CA0002E2816D116F8010F44F004042A280DD04E
:103CB0006FF02F023078A0F13003092B09D807EB01
:103CC000870302EB4303C718761CF3E758F8047B1D
:103CD000761C30786C280FD006DC4C2817D068286A
:103CE0000DD06A2814D104E0742810D07A280FD19E
:103CF0000DE044F400140AE044F4801401E044F4BC
:103D000040147278824202D104F58014761C761C2D
:103D1000307866280BD013DC582877D009DC0028CF
:103D200075D04528F6D04628F4D047281AD193E11B
:103D300018E0632835D0642879D0652812D18BE14A
:103D4000702873D008DC6728F1D069286FD06E28FE
:103D50000DD06F2806D1ACE073282CD0752874D014
:103D6000782853D05246179990476D1C54E1C4F3FC
:103D70000250022809D003280DD0D8F800100428DA
:103D80000DD00D6008F1040846E1D8F80010EA17DC
:103D9000C1E90052F6E7D8F800100D80F2E70D7087
:103DA000F0E718F8041B8DF8001000208DF80100D2
:103DB000EB46012003E058F804BB4FF0FF306107E9
:103DC0004FF0000102D40DE009F101018946B9422A
:103DD0000FDA8145F8DB1BF809100029F4D108E05F
:103DE00009F1010189468142FADB1BF8091000291B
:103DF000F6D103985346A0EB090721463846179A97
:103E000000F080FA284400EB090507E044E008E1EF
:103E10000DE01BF8010B524617999047B9F10109C3
:103E2000F7D2534621463846179AF2E039E00A2184
:103E3000C4F302524FF0000B0091022A06D058F84A
:103E4000040BC117032A09D00AE023E008F1070098
:103E500020F00702F2E80201904605E000B2C11727
:103E6000042A01D140B2C117002906DA0A4600210E
:103E7000404261EB02012D2202E0220504D52B22F3
:103E80008DF80420012203E0E20701D02022F7E7A9
:103E9000914657E00A2100E010214FF0000B0091FD
:103EA0000BE010214FF0000B44F0040408270091B0
:103EB00003E008204FF0000B0090C4F30252022AE6
:103EC00005D058F8040B0021032A08D008E008F1B7
:103ED000070020F00702F2E80201904603E080B2FA
:103EE000042A00D1C0B24FF0000922072AD5327847
:103EF000702A07D0DDF800C08CF0100C5CEA0B0CC7
:103F000005D00EE040228DF80420012208E050EA9E
:103F1000010306D030238DF804308DF805200222ED
:103F20009146009B83F0080353EA0B030AD150EA41
:103F3000010201D1620705D530228DF804204FF02F
:103F400001097F1E3278582A04D039A20C920CAA9B
:103F500002920BE03BA2F9E75B46009AFCF776FF82
:103F60000C9B9B5C029A521E0292137050EA010253
:103F7000F2D1029804A9081A00F1200B600702D5BB
:103F800024F4803400E001275F4502DDA7EB0B003D
:103F900000E0002000EB0B01009003984944401A18
:103FA0000390E00306D453462146179A039800F085
:103FB000A9F90544002706E001A85246C05D1799FB
:103FC00090476D1C7F1C4F45F6DBE0030CD5534634
:103FD0002146179A039800F095F9054404E0302033
:103FE0005246179990476D1C0099481E0090002971
:103FF000F5DC08E00298029952460078491C0291CB
:10400000179990476D1CBBF10001ABF1010BF1DC7E
:104010005BE100F065F90544761C307800287FF4F8
:104020000DAE19B02846BDE8F08F00000928010048
:10403000303132333435363738396162636465661E
:1040400000000000303132333435363738394142E0
:104050004344454600000000600700D4062708F1ED
:10406000070020F00700F0E80223804603F0004C30
:104070005FEA0C0001D097A009E0200501D596A0C9
:1040800005E0E00701D095A001E0AFF24C001390ED
:10409000307823F0004365280CD006DC452809D091
:1040A00046281DD047287FD13BE0662818D06728D6
:1040B0007AD136E00021112F01DB112000E0781CBD
:1040C000CDE9000104A90CA8FFF7EEFCDDE90D0124
:1040D0000C9A4FF0000B07F10109109200914EE08D
:1040E0004FF000400097CDE9011004A90CA8FFF79C
:1040F000DBFCDDE90D020C9B0F994FF0000B9146A4
:104100001093009211B9791C00EB0109B7EB09007B
:1041100003D4C0F1FF3B07F10109A9EB07000190AF
:1041200042E0012F00DA01270021112F01DD1120CB
:1041300000E03846CDE9000104A90CA8FFF7B4FC63
:10414000DDE90D010C9A00914FF0000BB946109279
:1041500021070FD4009A4A4503DA914601E0A9F1FC
:104160000109B9F1010F05DD109AA9F10101515CB6
:104170003029F4D0B84202DA10F1040F03DA012139
:10418000CDE9011010E0002803DC8344A9EB000115
:1041900002E0411C494500DD8946A0EB0B00401CB4
:1041A00001904FF000400290200705D40198484547
:1041B00002DB4FF0FF30019000208DF84B00029899
:1041C0000DF14B07B0F1004F25D002200C902B20B1
:1041D0000D90029800280CDA404202902D200D909C
:1041E00007E00A210298FCF71BFE3031029007F825
:1041F000011D0C99481E0C900029F2DC0298002841
:10420000EFD1791E0D980870307800F0200040F052
:10421000450007F8020D11A8C01BC01D029013989D
:10422000007800B1012000EB0901019801EBE07179
:10423000029801440398401A401E0390E00306D4FC
:1042400053462146179A039800F05CF805441398EA
:10425000007818B15246179990476D1CE00323D59A
:1042600053462146179A039800F04CF805441BE08A
:10427000BBF1000F07DB0098584504DD1098179933
:1042800010F80B0001E01799302052469047019832
:104290000BF1010B401E05F10105019004D12E2008
:1042A0005246179990476D1CB9F10001A9F1010917
:1042B000DEDC05E017F8010B5246179990476D1C9C
:1042C0000299481E02900029F4DC53462146179AB1
:1042D00003989EE62D0000002B0000002000000047
:1042E0002DE9F041044600251E461746880404D4F3
:1042F00005E039462020B0476D1C641EF9D52846DC
:10430000BDE8F0812DE9F041044600251E469046A7
:10431000C80301D5302700E02027880404D505E034
:1043200041463846B0476D1C641EF9D52846BDE8A5
:10433000F0810A68531C0B601070704770B504461A
:104340000D461646012229462046FDF787FF611CCF
:10435000C8B201222946FDF781FFA11CC8B2012283
:104360002946FDF77BFF70BD10B56FF00400FEF726
:1043700015FC0A4800680A49B0FBF1F009490870C9
:104380000846007800EB4001C1EBC0104FF6FF710A
:1043900001EAC0000449088010BD0000140000209C
:1043A00000127A003E010020400100200146114A1F
:1043B00012884A434FF0E0235A6100229A611A465C
:1043C000126942F001021A6100BF4FF0E022106949
:1043D00000F001021AB100F48032002AF5D04FF04B
:1043E000E022126922F001024FF0E0231A6100225C
:1043F0009A617047400100200146114A12784A43F1
:104400004FF0E0235A6100229A611A46126942F085
:1044100001021A6100BF4FF0E022106900F00102B2
:104420001AB100F48032002AF5D04FF0E022126970
:1044300022F001024FF0E0231A6100229A617047D6
:104440003E010020F8B500F0C1FDB4494978C1EB48
:10445000C101B34A8818FCF7AEF905281CD1AF4852
:104460004078C0EBC000AE49421856210120FDF74C
:10447000BDF9AA494978C1EBC101A94A8818FCF7DE
:104480009AF9042101EBC00600200F233246542183
:104490000090FEF75FF91BE0A0484078C0EBC00039
:1044A0009F4942185E210120FDF7A0F99B494978F8
:1044B000C1EBC1019A4A8818FCF77DF9042101EB90
:1044C000C00600200F2332465C210090FEF742F91F
:1044D000002500279348007801283BD18F48417878
:1044E0000078401E814204DA8C484078401C8B4999
:1044F00048708D480078012807D08C48007805283E
:1045000010D18B480068401D60B9002087490870B1
:1045100087490860844908708049487001208549AE
:1045200008705DE0002080490870824908707F486B
:104530000078042804DD7E480068401E7C4908603D
:104540007A48007805284BDA78480078401C77498B
:10455000087045E073480078022841D1754800781A
:10456000012808D071480078B8B971480068A0B92E
:104570006A48407888B905206C49087040426C4907
:10458000086066480078401E64494870012066490A
:10459000087000206749087022E000206249087016
:1045A000644908706148007840B961480068002893
:1045B00004DA5F480068401C5D4908605B48007889
:1045C000002804DD59480078401E584908705348B7
:1045D0004078002804DD51484078401E4F4948701B
:1045E00000205049087052480088C00004B2524868
:1045F000B0F90000844219DD4F48B0F90000201ADC
:10460000032190FBF1F0401CC7B2082F00DD082702
:1046100049480088384400B2474908800846B0F944
:104620000000844220DC084604801DE04248B0F9C6
:104630000000844218DA4048B0F90000001B032152
:1046400090FBF1F0401CC7B2082F00DD08273A4864
:104650000088C01B00B2384908800846B0F9000045
:10466000A04201DC084604803348B0F9005000261F
:1046700034E015F1080F2CDD402D2ADAFEB9274968
:104680004978C1EBC101264A8818FCF794F805283F
:104690000AD1C6EBC60022494218682105F1110073
:1046A00000B2FDF75FF814E0C6EBC6001C494218E3
:1046B000682105F1110000B2FDF754F809E0C6EBDE
:1046C000C60017494218682105F1110000B2FDF734
:1046D00049F805F1080005B2701CC6B20F48007811
:1046E000B042C6DC0D494978C1EBC1010C4A8818BB
:1046F000FCF761F800EB400046000C480078082306
:104700003246682100901120FDF72CFF0349C87E36
:10471000FFF730F8FEF750FCF8BD0000A8000020BD
:10472000CC000020380100203D0100203101002094
:10473000340100203C0100203A010020F0B5FF25A3
:10474000204E06EBC1163554012405E081251D4E8F
:1047500006EBC1163555641C8518A542F6DCFF250D
:10476000184E06EBC1168718F555042B00DA042302
:10477000151F9D4200DA131FBD26124D05EBC11710
:10478000DD1E7E550F4D05EBC1179D1E7E550D4D4F
:1047900005EBC1175D1E7E55BD250A4E06EBC11601
:1047A000F554BD26074D05EBC1175D1C7E55054D23
:1047B00005EBC1179D1C7E55024D05EBC117DD1C95
:1047C0007E55F0BD680D0020F8B506465B213046E9
:1047D000FBF7E7FF04465D213046FBF7E2FF0546A5
:1047E0008CB185B1AC420ED2281B421E611C6846BA
:1047F000FBF7CBFF0021281B401E0DF80010684678
:10480000FBF7E9FFF8BD4FF0FF30FBE72DE9F04F74
:1048100087B0002006908146824600244FF0010BAD
:104820003D48B0F91400002802DA00203A49888295
:104830003948047D67E0394931F81400FCF742FA41
:1048400005460E4634490869FCF776FA0022344BD7
:10485000CDE90001FCF73BF90022324BCDE9020122
:10486000FCF735F92A463346CDE90401FCF72FF968
:104870000746FCF748FA0A3000F0FF09274A611C96
:1048800032F81100FCF71EFACDE90201224908694D
:10489000FCF752FA0022224BCDE90001FCF717F990
:1048A000074600221F4BFCF712F90546DDE90223FB
:1048B000FCF70DF9CDE90401FCF725FA0A3000F008
:1048C000FF0AB9F1340F01DB4FF03409BAF1340FAC
:1048D00001DB4FF0340A0120CAF13F050E4E009073
:1048E000B6F91660AB1BC9F13F050B4EB6F9166061
:1048F000A91B5A46561C06F0FF0BABF10100FDF751
:10490000EFF9601CC4B20448B0F914006430A0424E
:1049100091DC07B0BDE8F08FA8000020680B0020F4
:104920000000E03F0000A83F10B50A46002100BF8C
:10493000054B1B8803F04003002BF9D0C3B2024C97
:10494000241D238010BD00000038014070B50125F2
:104950000026A9025C48FBF7EFFEFFF773FD5A48FB
:10496000FDF7DEFB5948C07B002879D05848007815
:104970000028FAD05548807B60BB0120554908705B
:104980005248807B54490978884205D04F48807B43
:1049900051490870FCF704FE002400BF07E04F48AF
:1049A00030F814004E4921F81400601C84B2FF2C2A
:1049B000F5DD00240BE000204A4941F82400484876
:1049C00030F81400000441F82400601C84B2FF2C6D
:1049D000F1DD76E03D48807B02282BD13D4908700F
:1049E0003A48807B3C490978884205D03748807B2B
:1049F00039490870FCF7D4FD002400BF07E03748B0
:104A000030F81400364921F81400601C84B2FF2CE1
:104A1000F5DD00240BE00020324941F82400304845
:104A200030F81400000441F82400601C84B2FF2C0C
:104A3000F1DD46E02548807B01282DD10320254962
:104A400008702248807B24490978884205D01F4895
:104A5000807B21490870FCF7A3FD002400BF08E01B
:104A600031E01E4830F814001D4921F81400601C84
:104A700084B2FF2CF5DD00240BE00020194941F839
:104A80002400174830F81400000441F82400601C8A
:104A900084B2FF2CF1DD14E000200E4908700B48B1
:104AA000807B0D490978884209D00848807B0A49F3
:104AB00008700649887BFEF735F8FCF771FDFDF7B5
:104AC00051FAFDF77BF970BD680D0020A8000020A9
:104AD0000900002044000020100000206811002080
:104AE000680900206801002008B501210820FDF7B1
:104AF000B9FCC020ADF8000003208DF8020014209E
:104B00008DF8030069460348FDF714F800F04EF8ED
:104B100008BD0000000C0140002001E0411CC8B2AB
:104B20000128FBDB7047000070B50446002520E03B
:104B300004F0800018B180200F49086003E0802055
:104B40000D49091D0860FFF7E7FF40200A4908608A
:104B5000FFF7E2FF40200849091D0860072D02D138
:104B60008020091F08606006040EFFF7D5FF681C4F
:104B7000C5B2082DDCDB70BD100C014010B58020E3
:104B80000949086040200860FFF7C6FF80200649F9
:104B9000091D0860FFF7C0FF40200349091D086098
:104BA000FFF7BAFF10BD0000100C014010B58020C7
:104BB000054908604020091F0860FFF7ADFF80200D
:104BC0000149091F086010BD140C014010B5802078
:104BD0000C490860FFF7A0FF40200A490860FFF772
:104BE0009BFF08480838006800F0800008B10124E5
:104BF00000E0002440200349091D0860FFF78CFFF6
:104C0000204610BD100C01401FB501211020FDF7FA
:104C100029FC4FF40050ADF80C0010208DF80F0067
:104C200003208DF80E0003A93148FCF783FF4FF4F1
:104C300000512F48FDF752F801210820FDF712FC22
:104C40004FF44870ADF80C0048208DF80F00032099
:104C50008DF80E0003A92748FCF76CFF01210846D8
:104C6000FDF700FC05210120FCF744FF2020019006
:104C700000208DF808000C208DF8090001208DF827
:104C80000A0001A8FCF7ECFE08210120FCF732FF26
:104C90004FF48070019000208DF808000C208DF8F2
:104CA000090001208DF80A0001A8FCF7D9FE0921AE
:104CB0000120FCF71FFF4FF40070019000208DF8D9
:104CC00008000C208DF8090001208DF80A0001A8C9
:104CD000FCF7C6FE17208DF8000001208DF80100BA
:104CE0008DF802008DF803006846FDF77BF91FBDC3
:104CF00000100140000C014008B501210820FDF71B
:104D0000B1FB01210848FCF7A1FF4FF46040ADF86A
:104D1000000028208DF8030003208DF8020069466A
:104D20000248FCF707FF08BD00023000000C0140FC
:104D300000BF00BF00BF00BFFFF716FB4FF46120AC
:104D400000F0F4F84FF4A060FDF784F9FCF7B2FD31
:104D500077210920FEF722F8FFF756FFFDF784F9C7
:104D6000FCF71EFC0B216320FDF75EFF3221480794
:104D7000FEF7CDF83248FDF7E3FD4FF4806131488E
:104D8000FBF7DAFC222030490870FF200870C820A9
:104D90000870012008702DA200210846FCF726FDAE
:104DA000162029490870792008702D2008704E209F
:104DB00008700220087028A200210E20FCF716FDC2
:104DC00029A0FCF70FFDFF201F4908704320087041
:104DD0004E2008704C2008700320087024A2002187
:104DE0002020FCF7BFFC27A0FCF7FCFC3420164970
:104DF00008704C2008705720087043200870042069
:104E0000087022A200212D20FCF7ACFC05200E49E1
:104E1000087020A0FCF7E6FC21A200213620FCF758
:104E2000A1FC0848FDF77CF90020074908704FF401
:104E3000FA60FFF7BBFA01E0FFF788FDFCE700002E
:104E400055170008680D00200F0000204E6A6F6A99
:104E50002E505444000000004F63666722447B22BA
:104E60004E7833343B000000214023245E262A0084
:104E7000456C6F6C656C6F6C3D23506C7677687514
:104E800034353C0061626364656667004971656D35
:104E9000703E000031323334353637383930000057
:104EA000717B36373E456B747D72666E7133687404
:104EB0007200000070B50546084830F91540601EC4
:104EC0000B21FDF7B1FE264604EBD670C0F34F016F
:104ED0004FF08040FEF71BF870BD0000C45500087D
:104EE0002DE9F04106460F46FCF7DEF8041E0D469C
:104EF00018BF0120284320F00040C0F17F6000F17E
:104F0000E040C00F0ED0301C18BF0120384320F005
:104F10000040C0F17F6000F1E040C00F04BF0120FD
:104F2000FEF7BCFD20462946BDE8F08110B586B0ED
:104F30000446012144F20400FDF794FA4FF4007096
:104F4000ADF8140003208DF8160018208DF8170016
:104F500005A91C48FCF7EEFD4FF48060ADF8140085
:104F600004208DF8170005A91648FCF7E3FD25205D
:104F70008DF8000003208DF801008DF8020001205B
:104F80008DF803006846FDF72DF801940020ADF878
:104F90000800ADF80A00ADF80C00ADF810000C20C8
:104FA000ADF80E0001A90848FEF758FA012240F2B8
:104FB00025510548FEF72CFA01210348FEF7F2F9C6
:104FC00006B010BD0008014000380140F0B589B0BE
:104FD00000274348807B00EB4000424A02EB40013F
:104FE00006224148FBF7D1FB3D49C87B00EBD0715D
:104FF0004910A0EB410109B13CA100E03DA10C46E4
:10500000062221463848C01DFBF7BFFB344908691A
:10501000FBF792FE05462A460B4638A107A8FEF785
:1050200015FD062207A930480E30FBF7AEFB2C48D1
:10503000B0F9142033A107A8FEF708FD062207A93E
:1050400029481530FBF7A1FB2548B0F916202FA100
:1050500007A8FEF7FBFC062207A923481C30FBF734
:1050600094FB1F48027E2BA107A8FEF7EFFC062247
:1050700007A91D482330FBF788FB1822274901A800
:10508000FBF741FB1648407E01AA52F82010062289
:1050900015482A30FBF779FB1148807E001D01AAD4
:1050A00052F82010062210483130FBF76EFB0C48F6
:1050B000C27E1BA107A8FEF7C9FC062207A90A4861
:1050C0003830FBF762FB0648007F00EB8000164A91
:1050D0008118062204483F30FBF757FB09B0F0BDAA
:1050E000A8000020F45D0008CC00002052756E007E
:1050F0000000000053746F7000000000252E326C19
:105100006600000058253364000000005925336410
:10511000000000005625336400000000A05E000877
:10512000544D3A2564000000665E00082DE9F04FFA
:105130008DB04FF00008C34600200C9000250026DB
:10514000002781464FF4805A8B48407E012803D0C7
:105150008948407E00287DD18748407E01283FD184
:1051600050243AE0854801688548FBF7CBFB854A27
:10517000611C0B9032F8111032F81420881AFBF7DA
:1051800087FD0A900B99FBF741FE0ED225467A491E
:10519000B1F91410294401EB81018800C11700EB1B
:1051A0001161090A784A117019E0764830F8140044
:1051B000504510DA734830F814A025466E49B1F90D
:1051C0001410294401EB81018800C11700EB116123
:1051D000090A6D4A1170601CC4B2B02CC2DB46E0F3
:1051E0006548407E002842D150243DE06348016874
:1051F0006348FBF787FB63490B9031F814200B469B
:10520000611C33F81110501AFBF742FD0A900B99FC
:10521000FBF7FCFD0ED225465749B1F9141029447D
:1052200001EB81018800C11700EB1161090A564AA0
:1052300011701BE0534830F81400484512DD514806
:1052400030F8149025464C49B1F91410294401EB6B
:10525000810100E08DE08800C11700EB1161090AAF
:10526000494A1170601CC4B2B02CBFDB00BFA5F16D
:1052700032004149097D0844C4B272E0414931F825
:105280001400FBF71FFDCDE908013B4908693B49C4
:105290000968FBF705FB0190FBF74EFD3B4A3C4BD1
:1052A000CDE90201FBF713FC3A4A3B4BCDE904017F
:1052B000FBF70DFCCDE90601DDE90823FBF707FC50
:1052C000CDE90A01FBF71FFDC0F13F002A49897DA6
:1052D000401AC6B22B4A611C32F81100FBF7F2FCEF
:1052E000CDE908012449086924490968FBF7D8FA7F
:1052F0000190FBF721FD254A254BCDE90201FBF783
:10530000E6FB244A244BCDE90401FBF7E0FBCDE9A1
:105310000601DDE90823FBF7DAFBCDE90A01FBF71B
:10532000F2FCC0F13F001449897D401AC7B2132E28
:1053300000DC13263F2E00DD3F26132F00DC132751
:105340003F2F00DD3F2701204246531C03F0FF089A
:105350000090A8F101003B463146FCF7C1FC601CFF
:10536000C4B20548B0F9141005F132000844A04257
:1053700084DC0DB0BDE8F08FA8000020A400002060
:105380000000FA43680900200C0000209A999999BE
:105390009999E93F011D41857E01883F0000000089
:1053A00000000000002F00000000070007000014AC
:1053B0007F147F1400242A7F2A12006264081323BA
:1053C00000364955225000000503000000001C2251
:1053D0004100000041221C000014083E081400088F
:1053E000083E0808000000A060000008080808083F
:1053F000000060600000002010080402003E5149D7
:10540000453E0000427F4000004261514946002174
:1054100041454B31001814127F100027454545398E
:10542000003C4A49493000017109050300364949E9
:10543000493600064949291E0000363600000000A2
:1054400056360000000814224100001414141414ED
:105450000000412214080002015109060032495996
:10546000513E007C1211127C007F49494936003EB2
:1054700041414122007F4141221C007F494949416D
:10548000007F09090901003E4149497A007F080867
:10549000087F0000417F4100002040413F01007F24
:1054A00008142241007F40404040007F020C027FF0
:1054B000007F0408107F003E4141413E007F090902
:1054C0000906003E4151215E007F09192946004628
:1054D000494949310001017F0101003F4040403FFF
:1054E000001F2040201F003F4038403F0063140849
:1054F0001463000708700807006151494543000024
:105500007F41410000552A552A55000041417F0046
:10551000000402010204004040404040000001023B
:105520000400002054545478007F48444438003824
:105530004444442000384444487F003854545418AC
:1055400000087E0901020018A4A4A47C007F0804BE
:1055500004780000447D4000004080847D00007F8E
:10556000102844000000417F4000007C04180478AB
:10557000007C0804047800384444443800FC2424A7
:1055800024180018242418FC007C0804040800488F
:105590005454542000043F444020003C4040207CB0
:1055A000001C2040201C003C4030403C004428109F
:1055B0002844001CA0A0A07C004464544C44141453
:1055C0001414141405000A00140032006400C8000A
:1055D000F401E803D0078813102700000000000042
:1055E0000000002F00002060FFFF602000147F14E7
:1055F0007F1400242A7F2A120062640813230036D5
:10560000495522500406FFFF060400001C224100F9
:10561000000041221C000014083E08140008083E47
:105620000808000000A06000000808080808000042
:1056300060600000002010080402003E5149453E11
:105640000000427F4000004261514946002141452F
:105650004B31001814127F10002745454539003C96
:105660004A49493000017109050300364949493664
:1056700000064949291E0000363600000000563653
:105680000000000814224100001414141414000037
:105690004122140800020151090600324959513EC5
:1056A000007C1211127C007F49494936003E41417D
:1056B0004122007F4141221C007F49494941007F2E
:1056C00009090901003E4149497A007F0808087F1D
:1056D0000000417F4100002040413F01007F08144D
:1056E0002241007F40404040007F020C027F007F4B
:1056F0000408107F003E4141413E007F0909090630
:10570000003E4151215E007F091929460046494962
:1057100049310001017F0101003F4040403F001F2F
:105720002040201F003F4038403F006314081463AE
:1057300000070870080700615149454300007F4198
:10574000410000552A552A55000041417F000004C0
:1057500002010204004040404040000001020400F9
:10576000002054545478007F48444438003844445E
:10577000442000384444487F0038545454180008EA
:105780007E0901020018A4A4A47C007F0804047808
:105790000000447D4000004080847D00007F102890
:1057A00044000000417F4000007C04180478007C25
:1057B0000804047800384444443800FC24242418A5
:1057C0000018242418FC007C0804040800485454E1
:1057D000542000043F444020003C4040207C001CFA
:1057E0002040201C003C4030403C0044281028440D
:1057F000001CA0A0A07C004464544C441414141455
:105800001414000000000000000000000000000070
:105810000000000070F8F87000000000000D0D009E
:105820000000003838000038380000000000000098
:1058300000000020F8F820F8F82000020F0F020FF7
:105840000F02003078CE8E18100000040C38390F8B
:105850000600183C24BCD86030000006030D1E1260
:105860001E0C00B0F8487830000000070F08090748
:105870000F090000003838000000000000000000A0
:1058800000000000C0F0380800000000071F3820AA
:10589000000000000838F0C00000000020381F079A
:1058A00000000080A0E0C0E0A0800000020301032F
:1058B0000200008080E0E080800000000003030020
:1058C000000000000000000000000000002C3C1C54
:1058D00000000080808080808000000000000000C8
:1058E000000000000000000000000000000C0C0C94
:1058F000000000000080E078180000181E0701007A
:1059000000000000F0F80868F8F00000070F0B082E
:105910000F0700202030F8F80000000000000F0FF3
:1059200000000030380888F87000000C0E0B0908E1
:1059300008000030388888F8700000060E08080F4C
:1059400007000000F8F800E0E00000030302020F87
:105950000F0200F8F88888880800000808080C077B
:10596000030000C0E07858C8800000070F08080F47
:10597000070000080888E878180000000E0F0100F2
:1059800000000070F8C888F8700000070F08090FC1
:10599000070000F0F80808F8F0000000090D0F03F8
:1059A000010000000060606000000000000C0C0CB2
:1059B000000000000060606000000000002C3C1C43
:1059C00000000080C0603018080000000103060CD1
:1059D000080000404040404040000001010101013A
:1059E00001000008183060C0800000080C060301A8
:1059F000000000303888C87830000000000D0D002D
:105A00000000F0F80888C848F8F0070F08090B0AEA
:105A10000B0B00E0F01818F0E000000F0F01010F71
:105A20000F0000F8F88888F87000000F0F08080FC2
:105A3000070000F0F8080838300000070F08080ECB
:105A4000060000F8F80818F0E000000F0F080C0737
:105A5000030000F8F88888880800000F0F0808087D
:105A6000080000F8F88888880800000F0F00000080
:105A7000000000F0F8080838300000070F08090F90
:105A80000F0000F8F88080F8F800000F0F00000FFA
:105A90000F00000008F8F80800000000080F0F08C9
:105AA00000000000000000F8F80000060E08080FD3
:105AB000070000F8F880E0781800000F0F00030FCF
:105AC0000C0000F8F80000000000000F0F080808A4
:105AD000080000F8F820C020F8F8000F0F000100BF
